{
  "contractName": "StudentRecord",
  "abi": [
    {
      "inputs": [],
      "stateMutability": "nonpayable",
      "type": "constructor"
    },
    {
      "anonymous": false,
      "inputs": [
        {
          "indexed": true,
          "internalType": "uint256",
          "name": "id",
          "type": "uint256"
        },
        {
          "indexed": false,
          "internalType": "string",
          "name": "name",
          "type": "string"
        },
        {
          "indexed": false,
          "internalType": "uint256",
          "name": "age",
          "type": "uint256"
        },
        {
          "indexed": false,
          "internalType": "string",
          "name": "department",
          "type": "string"
        }
      ],
      "name": "StudentAdded",
      "type": "event"
    },
    {
      "anonymous": false,
      "inputs": [
        {
          "indexed": true,
          "internalType": "uint256",
          "name": "id",
          "type": "uint256"
        }
      ],
      "name": "StudentDeleted",
      "type": "event"
    },
    {
      "anonymous": false,
      "inputs": [
        {
          "indexed": true,
          "internalType": "uint256",
          "name": "id",
          "type": "uint256"
        },
        {
          "indexed": false,
          "internalType": "string",
          "name": "name",
          "type": "string"
        },
        {
          "indexed": false,
          "internalType": "uint256",
          "name": "age",
          "type": "uint256"
        },
        {
          "indexed": false,
          "internalType": "string",
          "name": "department",
          "type": "string"
        }
      ],
      "name": "StudentUpdated",
      "type": "event"
    },
    {
      "inputs": [
        {
          "internalType": "uint256",
          "name": "",
          "type": "uint256"
        }
      ],
      "name": "keys",
      "outputs": [
        {
          "internalType": "uint256",
          "name": "",
          "type": "uint256"
        }
      ],
      "stateMutability": "view",
      "type": "function",
      "constant": true
    },
    {
      "inputs": [],
      "name": "owner",
      "outputs": [
        {
          "internalType": "address",
          "name": "",
          "type": "address"
        }
      ],
      "stateMutability": "view",
      "type": "function",
      "constant": true
    },
    {
      "inputs": [
        {
          "internalType": "uint256",
          "name": "_id",
          "type": "uint256"
        },
        {
          "internalType": "string",
          "name": "_name",
          "type": "string"
        },
        {
          "internalType": "uint256",
          "name": "_age",
          "type": "uint256"
        },
        {
          "internalType": "string",
          "name": "_department",
          "type": "string"
        }
      ],
      "name": "addStudent",
      "outputs": [],
      "stateMutability": "nonpayable",
      "type": "function"
    },
    {
      "inputs": [
        {
          "internalType": "uint256",
          "name": "_id",
          "type": "uint256"
        },
        {
          "internalType": "string",
          "name": "_name",
          "type": "string"
        },
        {
          "internalType": "uint256",
          "name": "_age",
          "type": "uint256"
        },
        {
          "internalType": "string",
          "name": "_department",
          "type": "string"
        }
      ],
      "name": "updateStudent",
      "outputs": [],
      "stateMutability": "nonpayable",
      "type": "function"
    },
    {
      "inputs": [
        {
          "internalType": "uint256",
          "name": "_id",
          "type": "uint256"
        }
      ],
      "name": "getStudent",
      "outputs": [
        {
          "internalType": "uint256",
          "name": "",
          "type": "uint256"
        },
        {
          "internalType": "string",
          "name": "",
          "type": "string"
        },
        {
          "internalType": "uint256",
          "name": "",
          "type": "uint256"
        },
        {
          "internalType": "string",
          "name": "",
          "type": "string"
        }
      ],
      "stateMutability": "view",
      "type": "function",
      "constant": true
    },
    {
      "inputs": [
        {
          "internalType": "uint256",
          "name": "_id",
          "type": "uint256"
        }
      ],
      "name": "deleteStudent",
      "outputs": [],
      "stateMutability": "nonpayable",
      "type": "function"
    },
    {
      "inputs": [],
      "name": "getAll",
      "outputs": [
        {
          "components": [
            {
              "internalType": "uint256",
              "name": "id",
              "type": "uint256"
            },
            {
              "internalType": "string",
              "name": "name",
              "type": "string"
            },
            {
              "internalType": "uint256",
              "name": "age",
              "type": "uint256"
            },
            {
              "internalType": "string",
              "name": "department",
              "type": "string"
            },
            {
              "internalType": "bool",
              "name": "exists",
              "type": "bool"
            }
          ],
          "internalType": "struct StudentRecord.Student[]",
          "name": "",
          "type": "tuple[]"
        }
      ],
      "stateMutability": "view",
      "type": "function",
      "constant": true
    },
    {
      "inputs": [
        {
          "internalType": "uint256",
          "name": "_id",
          "type": "uint256"
        }
      ],
      "name": "studentExists",
      "outputs": [
        {
          "internalType": "bool",
          "name": "",
          "type": "bool"
        }
      ],
      "stateMutability": "view",
      "type": "function",
      "constant": true
    }
  ],
  "bytecode": "0x608060405234801561001057600080fd5b5033600260006101000a81548173ffffffffffffffffffffffffffffffffffffffff021916908373ffffffffffffffffffffffffffffffffffffffff160217905550611a01806100616000396000f3fe608060405234801561001057600080fd5b50600436106100885760003560e01c80638da5cb5b1161005b5780638da5cb5b1461012a578063b645307d14610148578063c11e15e414610164578063fd38fb151461018057610088565b80630cb6aaf11461008d57806353ed5143146100bd5780635900fe9f146100db578063642f9163146100f7575b600080fd5b6100a760048036038101906100a29190610e14565b6101b0565b6040516100b49190610e50565b60405180910390f35b6100c56101d4565b6040516100d29190611064565b60405180910390f35b6100f560048036038101906100f091906111bb565b61040a565b005b610111600480360381019061010c9190610e14565b61064a565b60405161012194939291906112a4565b60405180910390f35b61013261088f565b60405161013f9190611338565b60405180910390f35b610162600480360381019061015d9190610e14565b6108b5565b005b61017e600480360381019061017991906111bb565b610b39565b005b61019a60048036038101906101959190610e14565b610d10565b6040516101a79190611362565b60405180910390f35b600181815481106101c057600080fd5b906000526020600020016000915090505481565b6060600060018054905067ffffffffffffffff8111156101f7576101f6611090565b5b60405190808252806020026020018201604052801561023057816020015b61021d610d3c565b8152602001906001900390816102155790505b50905060005b600180549050811015610402576000806001838154811061025a5761025961137d565b5b906000526020600020015481526020019081526020016000206040518060a001604052908160008201548152602001600182018054610298906113db565b80601f01602080910402602001604051908101604052809291908181526020018280546102c4906113db565b80156103115780601f106102e657610100808354040283529160200191610311565b820191906000526020600020905b8154815290600101906020018083116102f457829003601f168201915b5050505050815260200160028201548152602001600382018054610334906113db565b80601f0160208091040260200160405190810160405280929190818152602001828054610360906113db565b80156103ad5780601f10610382576101008083540402835291602001916103ad565b820191906000526020600020905b81548152906001019060200180831161039057829003601f168201915b505050505081526020016004820160009054906101000a900460ff1615151515815250508282815181106103e4576103e361137d565b5b602002602001018190525080806103fa9061143b565b915050610236565b508091505090565b600260009054906101000a900473ffffffffffffffffffffffffffffffffffffffff1673ffffffffffffffffffffffffffffffffffffffff163373ffffffffffffffffffffffffffffffffffffffff161461049a576040517f08c379a0000000000000000000000000000000000000000000000000000000008152600401610491906114f5565b60405180910390fd5b600084036104dd576040517f08c379a00000000000000000000000000000000000000000000000000000000081526004016104d490611561565b60405180910390fd5b60008085815260200190815260200160002060040160009054906101000a900460ff1615610540576040517f08c379a0000000000000000000000000000000000000000000000000000000008152600401610537906115f3565b60405180910390fd5b6040518060a001604052808581526020018481526020018381526020018281526020016001151581525060008086815260200190815260200160002060008201518160000155602082015181600101908161059b91906117bf565b506040820151816002015560608201518160030190816105bb91906117bf565b5060808201518160040160006101000a81548160ff0219169083151502179055509050506001849080600181540180825580915050600190039060005260206000200160009091909190915055837f1be1384d0e46750bf3c73e3077bce8ea0c00b17ea89a797f35d39e43210f5fed84848460405161063c93929190611891565b60405180910390a250505050565b600060606000606060008503610695576040517f08c379a000000000000000000000000000000000000000000000000000000000815260040161068c90611561565b60405180910390fd5b60008086815260200190815260200160002060040160009054906101000a900460ff166106f7576040517f08c379a00000000000000000000000000000000000000000000000000000000081526004016106ee90611948565b60405180910390fd5b60008060008781526020019081526020016000206040518060a001604052908160008201548152602001600182018054610730906113db565b80601f016020809104026020016040519081016040528092919081815260200182805461075c906113db565b80156107a95780601f1061077e576101008083540402835291602001916107a9565b820191906000526020600020905b81548152906001019060200180831161078c57829003601f168201915b50505050508152602001600282015481526020016003820180546107cc906113db565b80601f01602080910402602001604051908101604052809291908181526020018280546107f8906113db565b80156108455780601f1061081a57610100808354040283529160200191610845565b820191906000526020600020905b81548152906001019060200180831161082857829003601f168201915b505050505081526020016004820160009054906101000a900460ff161515151581525050905080600001518160200151826040015183606001519450945094509450509193509193565b600260009054906101000a900473ffffffffffffffffffffffffffffffffffffffff1681565b600260009054906101000a900473ffffffffffffffffffffffffffffffffffffffff1673ffffffffffffffffffffffffffffffffffffffff163373ffffffffffffffffffffffffffffffffffffffff1614610945576040517f08c379a000000000000000000000000000000000000000000000000000000000815260040161093c906114f5565b60405180910390fd5b60008103610988576040517f08c379a000000000000000000000000000000000000000000000000000000000815260040161097f90611561565b60405180910390fd5b60008082815260200190815260200160002060040160009054906101000a900460ff166109ea576040517f08c379a00000000000000000000000000000000000000000000000000000000081526004016109e190611948565b60405180910390fd5b600080828152602001908152602001600020600080820160009055600182016000610a159190610d6d565b6002820160009055600382016000610a2d9190610d6d565b6004820160006101000a81549060ff0219169055505060005b600180549050811015610b08578160018281548110610a6857610a6761137d565b5b906000526020600020015403610af5576001808080549050610a8a9190611968565b81548110610a9b57610a9a61137d565b5b906000526020600020015460018281548110610aba57610ab961137d565b5b90600052602060002001819055506001805480610ada57610ad961199c565b5b60019003818190600052602060002001600090559055610b08565b8080610b009061143b565b915050610a46565b50807f34de6b871245ed0a89b82912e8e5ee6d9c3104b3e5bb1d67a71ad7e68239e41c60405160405180910390a250565b600260009054906101000a900473ffffffffffffffffffffffffffffffffffffffff1673ffffffffffffffffffffffffffffffffffffffff163373ffffffffffffffffffffffffffffffffffffffff1614610bc9576040517f08c379a0000000000000000000000000000000000000000000000000000000008152600401610bc0906114f5565b60405180910390fd5b60008403610c0c576040517f08c379a0000000000000000000000000000000000000000000000000000000008152600401610c0390611561565b60405180910390fd5b60008085815260200190815260200160002060040160009054906101000a900460ff16610c6e576040517f08c379a0000000000000000000000000000000000000000000000000000000008152600401610c6590611948565b60405180910390fd5b826000808681526020019081526020016000206001019081610c9091906117bf565b508160008086815260200190815260200160002060020181905550806000808681526020019081526020016000206003019081610ccd91906117bf565b50837ff30d7752a2712db61b6a69077c831c1aa4923cf1d2a6a8c6e5152aae9be883e2848484604051610d0293929190611891565b60405180910390a250505050565b600080600083815260200190815260200160002060040160009054906101000a900460ff169050919050565b6040518060a00160405280600081526020016060815260200160008152602001606081526020016000151581525090565b508054610d79906113db565b6000825580601f10610d8b5750610daa565b601f016020900490600052602060002090810190610da99190610dad565b5b50565b5b80821115610dc6576000816000905550600101610dae565b5090565b6000604051905090565b600080fd5b600080fd5b6000819050919050565b610df181610dde565b8114610dfc57600080fd5b50565b600081359050610e0e81610de8565b92915050565b600060208284031215610e2a57610e29610dd4565b5b6000610e3884828501610dff565b91505092915050565b610e4a81610dde565b82525050565b6000602082019050610e656000830184610e41565b92915050565b600081519050919050565b600082825260208201905092915050565b6000819050602082019050919050565b610ea081610dde565b82525050565b600081519050919050565b600082825260208201905092915050565b60005b83811015610ee0578082015181840152602081019050610ec5565b60008484015250505050565b6000601f19601f8301169050919050565b6000610f0882610ea6565b610f128185610eb1565b9350610f22818560208601610ec2565b610f2b81610eec565b840191505092915050565b60008115159050919050565b610f4b81610f36565b82525050565b600060a083016000830151610f696000860182610e97565b5060208301518482036020860152610f818282610efd565b9150506040830151610f966040860182610e97565b5060608301518482036060860152610fae8282610efd565b9150506080830151610fc36080860182610f42565b508091505092915050565b6000610fda8383610f51565b905092915050565b6000602082019050919050565b6000610ffa82610e6b565b6110048185610e76565b93508360208202850161101685610e87565b8060005b8581101561105257848403895281516110338582610fce565b945061103e83610fe2565b925060208a0199505060018101905061101a565b50829750879550505050505092915050565b6000602082019050818103600083015261107e8184610fef565b905092915050565b600080fd5b600080fd5b7f4e487b7100000000000000000000000000000000000000000000000000000000600052604160045260246000fd5b6110c882610eec565b810181811067ffffffffffffffff821117156110e7576110e6611090565b5b80604052505050565b60006110fa610dca565b905061110682826110bf565b919050565b600067ffffffffffffffff82111561112657611125611090565b5b61112f82610eec565b9050602081019050919050565b82818337600083830152505050565b600061115e6111598461110b565b6110f0565b90508281526020810184848401111561117a5761117961108b565b5b61118584828561113c565b509392505050565b600082601f8301126111a2576111a1611086565b5b81356111b284826020860161114b565b91505092915050565b600080600080608085870312156111d5576111d4610dd4565b5b60006111e387828801610dff565b945050602085013567ffffffffffffffff81111561120457611203610dd9565b5b6112108782880161118d565b935050604061122187828801610dff565b925050606085013567ffffffffffffffff81111561124257611241610dd9565b5b61124e8782880161118d565b91505092959194509250565b600082825260208201905092915050565b600061127682610ea6565b611280818561125a565b9350611290818560208601610ec2565b61129981610eec565b840191505092915050565b60006080820190506112b96000830187610e41565b81810360208301526112cb818661126b565b90506112da6040830185610e41565b81810360608301526112ec818461126b565b905095945050505050565b600073ffffffffffffffffffffffffffffffffffffffff82169050919050565b6000611322826112f7565b9050919050565b61133281611317565b82525050565b600060208201905061134d6000830184611329565b92915050565b61135c81610f36565b82525050565b60006020820190506113776000830184611353565b92915050565b7f4e487b7100000000000000000000000000000000000000000000000000000000600052603260045260246000fd5b7f4e487b7100000000000000000000000000000000000000000000000000000000600052602260045260246000fd5b600060028204905060018216806113f357607f821691505b602082108103611406576114056113ac565b5b50919050565b7f4e487b7100000000000000000000000000000000000000000000000000000000600052601160045260246000fd5b600061144682610dde565b91507fffffffffffffffffffffffffffffffffffffffffffffffffffffffffffffffff82036114785761147761140c565b5b600182019050919050565b7f4f6e6c792061646d696e2063616e20706572666f726d2074686973206163746960008201527f6f6e000000000000000000000000000000000000000000000000000000000000602082015250565b60006114df60228361125a565b91506114ea82611483565b604082019050919050565b6000602082019050818103600083015261150e816114d2565b9050919050565b7f496e76616c696420494400000000000000000000000000000000000000000000600082015250565b600061154b600a8361125a565b915061155682611515565b602082019050919050565b6000602082019050818103600083015261157a8161153e565b9050919050565b7f53747564656e7420776974682074686520676976656e20494420616c7265616460008201527f7920657869737473000000000000000000000000000000000000000000000000602082015250565b60006115dd60288361125a565b91506115e882611581565b604082019050919050565b6000602082019050818103600083015261160c816115d0565b9050919050565b60008190508160005260206000209050919050565b60006020601f8301049050919050565b600082821b905092915050565b6000600883026116757fffffffffffffffffffffffffffffffffffffffffffffffffffffffffffffffff82611638565b61167f8683611638565b95508019841693508086168417925050509392505050565b6000819050919050565b60006116bc6116b76116b284610dde565b611697565b610dde565b9050919050565b6000819050919050565b6116d6836116a1565b6116ea6116e2826116c3565b848454611645565b825550505050565b600090565b6116ff6116f2565b61170a8184846116cd565b505050565b5b8181101561172e576117236000826116f7565b600181019050611710565b5050565b601f8211156117735761174481611613565b61174d84611628565b8101602085101561175c578190505b61177061176885611628565b83018261170f565b50505b505050565b600082821c905092915050565b600061179660001984600802611778565b1980831691505092915050565b60006117af8383611785565b9150826002028217905092915050565b6117c882610ea6565b67ffffffffffffffff8111156117e1576117e0611090565b5b6117eb82546113db565b6117f6828285611732565b600060209050601f8311600181146118295760008415611817578287015190505b61182185826117a3565b865550611889565b601f19841661183786611613565b60005b8281101561185f5784890151825560018201915060208501945060208101905061183a565b8683101561187c5784890151611878601f891682611785565b8355505b6001600288020188555050505b505050505050565b600060608201905081810360008301526118ab818661126b565b90506118ba6020830185610e41565b81810360408301526118cc818461126b565b9050949350505050565b7f53747564656e7420776974682074686520676976656e20494420646f6573206e60008201527f6f74206578697374000000000000000000000000000000000000000000000000602082015250565b600061193260288361125a565b915061193d826118d6565b604082019050919050565b6000602082019050818103600083015261196181611925565b9050919050565b600061197382610dde565b915061197e83610dde565b92508282039050818111156119965761199561140c565b5b92915050565b7f4e487b7100000000000000000000000000000000000000000000000000000000600052603160045260246000fdfea2646970667358221220d3b5dd83ca67e1158c145a41a351a9b44b788bf1ff6758a415bdab2d714f02a164736f6c63430008130033",
  "immutableReferences": {},
  "source": "// SPDX-License-Identifier: MIT\npragma solidity 0.8.19;\n\ncontract StudentRecord {\n    // Struct to represent a student record\n    struct Student {\n        uint256 id;\n        string name;\n        uint256 age;\n        string department;\n        bool exists;\n    }\n\n    // Mapping to store student records\n    mapping(uint256 => Student) private students;\n\n    // Used to store all the keys\n    uint256[] public keys;\n\n    // Event to emit when a new student record is added\n    event StudentAdded(uint256 indexed id, string name, uint256 age, string department);\n\n    // Event to emit when a student record is updated\n    event StudentUpdated(uint256 indexed id, string name, uint256 age, string department);\n\n    // Event to emit when a student record is deleted\n    event StudentDeleted(uint256 indexed id);\n\n    // Modifier to restrict access to certain functions\n    modifier onlyAdmin() {\n        require(msg.sender == owner, \"Only admin can perform this action\");\n        _;\n    }\n\n    // Address of the contract owner (admin)\n    address public owner;\n\n    // Constructor to set the contract owner\n    constructor() {\n        owner = msg.sender;\n    }\n\n    // Function to add a new student record\n    function addStudent(uint256 _id, string memory _name, uint256 _age, string memory _department) public onlyAdmin {\n        require(_id != 0, \"Invalid ID\");\n        require(!students[_id].exists, \"Student with the given ID already exists\");\n\n        students[_id] = Student(_id, _name, _age, _department, true);\n        keys.push(_id);\n        emit StudentAdded(_id, _name, _age, _department);\n    }\n\n    // Function to update an existing student record\n    function updateStudent(uint256 _id, string memory _name, uint256 _age, string memory _department) public onlyAdmin {\n        require(_id != 0, \"Invalid ID\");\n        require(students[_id].exists, \"Student with the given ID does not exist\");\n\n        students[_id].name = _name;\n        students[_id].age = _age;\n        students[_id].department = _department;\n        emit StudentUpdated(_id, _name, _age, _department);\n    }\n\n    // Function to retrieve a student record\n    function getStudent(uint256 _id) public view returns (uint256, string memory, uint256, string memory) {\n        require(_id != 0, \"Invalid ID\");\n        require(students[_id].exists, \"Student with the given ID does not exist\");\n\n        Student memory student = students[_id];\n        return (student.id, student.name, student.age, student.department);\n    }\n\n    // Function to delete a student record\n    function deleteStudent(uint256 _id) public onlyAdmin {\n        require(_id != 0, \"Invalid ID\");\n        require(students[_id].exists, \"Student with the given ID does not exist\");\n\n        delete students[_id];\n        for (uint i = 0; i < keys.length; i++) {\n            if (keys[i] == _id) {\n                // Swap the key with the last element\n                keys[i] = keys[keys.length - 1];\n                // Remove the last element\n                keys.pop();\n                break;\n            }\n        }\n        emit StudentDeleted(_id);\n    }\n\n    // Get all student records\n    function getAll() public view returns (Student[] memory) {\n        Student[] memory values = new Student[](keys.length);\n        for (uint i = 0; i < keys.length; i++) {\n            values[i] = students[keys[i]];\n        }\n        return values;\n    }\n\n    // Function to check if a student record exists\n    function studentExists(uint256 _id) public view returns (bool) {\n        return students[_id].exists;\n    }\n}\n",
  "sourcePath": "C:\\Users\\Tejas\\Desktop\\Ethereum\\contracts\\StudentRecord.sol",
  "compiler": {
    "name": "solc",
    "version": "0.8.19+commit.7dd6d404.Emscripten.clang"
  },
  "schemaVersion": "3.4.16",
  "updatedAt": "2024-05-19T06:43:03.019Z",
  "networkType": "ethereum",
  "devdoc": {
    "kind": "dev",
    "methods": {},
    "version": 1
  },
  "userdoc": {
    "kind": "user",
    "methods": {},
    "version": 1
  }
}